:020000040800F2
:10800000000001208D930008DD930008DD93000837
:10801000DD930008DD930008DD93000800000000F8
:10802000000000000000000000000000DD930008D8
:10803000DD93000800000000DD930008DD930008D8
:1080400000000000E58A0008DD9300088D8B000821
:10805000DD930008DD9300082D8700086587000880
:108060009D870008D58700080D880008DD9300086B
:10807000DD930008DD930008DD930008DD93000820
:10808000DD930008DD930008DD9300080000000088
:10809000000000000000000000000000458800080B
:1080A000DD930008DD930008DD930008DD930008F0
:1080B000DD930008DD930008DD930008DD930008E0
:1080C000DD930008DD930008DD930008DD930008D0
:1080D000DD930008F99000082990000800000000D6
:1080E000798900081D8B0008558B000800000000EE
:1080F000000000000000000000000000DD93000808
:1081000000000000DD930008DD930008DD93000807
:10811000000000000000000000000000000000005F
:10812000DD930008DD930008DD930008DD9300086F
:10813000DD930008000000000000000000000000C7
:10814000000000000000000000000000DD930008B7
:10815000DD930008DD930008DD930008C991000855
:10816000DD930008DD93000800000000000000001F
:1081700000000000000000000000000000000000FF
:1081800000000000000000000000000000000000EF
:04819000DD93000873
:1081940010B5054C237833B9044B13B10448AFF33D
:1081A40000800123237010BD38000020000000006F
:1081B4002894000808B5034B1BB103490348AFF3E7
:1081C400008008BD000000003C0000202894000846
:1081D40080B485B000AF78600023FB737B680E4ADF
:1081E40093420BD07B680D4A934207D07B680C4ABC
:1081F400934203D07B680B4A934204D10A4A7B68BA
:10820400C2F8043D01E00123FB73FB7B18461437DD
:10821400BD4680BC704700BF0004FA050005FA059E
:108224000006FA050007FA0508E000E080B483B010
:1082340000AF6FF07F433B600023FB713B68B3F1F9
:10824400807F02D90123FB7111E00C4B1B680B4AA0
:1082540023F001031360094A3B685360074B002273
:108264009A60064B1B68054A43F004031360FB79CC
:1082740018460C37BD4680BC704700BF10E000E0D4
:1082840080B485B000AF78600023FB737B68B3F1E2
:10829400807F02D90123FB7312E00C4A7B68536090
:1082A4000A4B1B68094A43F00103136000BF074BE4
:1082B4001B6803F48033002BF9D0044B00229A602E
:1082C400FB7B18461437BD4680BC704710E000E0C5
:1082D40080B584B000AF78607B68002B0CD07B68DD
:1082E400FB6006E044F28910FFF7CAFFFB68013B1C
:1082F400FB60FB68002BF5D100BF1037BD4680BD85
:1083040080B584B000AF78607B680A2B0FD97B6896
:10831400094AA2FB0323DB08FB6005E0A720FFF763
:10832400AFFFFB68013BFB60FB68002BF6D100BF8D
:108334001037BD4680BD00BFCDCCCCCC80B584B059
:1083440000AF78600023FB730023BB737B68002BB2
:1083540002D10123FB736CE07B681A787B685B783D
:10836400C3F30303DBB21946104600F084F9034655
:10837400FB737B681A787B685B78C3F30313DBB207
:108384001946104600F077F90346FB730023BB73CC
:108394000DE07B681878BB7B7A6813449B78194698
:1083A40000F069F90346FB73BB7B0133BB73BB7BF2
:1083B400032BEED91420FFF78BFF3821786800F0E7
:1083C40097F80346FB730520FFF782FF382178688E
:1083D40000F08EF80346FB739620FFF791FF3821D7
:1083E400786800F085F80346FB730121786800F093
:1083F4007FF80346FB730221786800F079F803469E
:10840400FB730621786800F073F80346FB730C21B4
:10841400786800F06DF80346FB732821786800F053
:1084240067F80346FB738021786800F061F803461F
:10843400FB73FB7B18461037BD4680BD80B584B006
:1084440000AF78600B46FB700023FB737B68002B46
:1084540002D10123FB7326E07B6818787B685B7884
:10846400C3F30303DBB20122194600F0C7FC034641
:10847400FB73FB781B09DBB21946786800F08CF8B3
:108484000346FB73786800F0CEF80346FB73FB7871
:108494001946786800F080F80346FB73786800F0AA
:1084A400C2F80346FB73FB7B18461037BD4680BDFC
:1084B40080B584B000AF786039600023FB737B68BB
:1084C400002B0CD10123FB730DE03B685A1C3A606E
:1084D4001B7819467868FFF7B1FF0346FB733B68C6
:1084E4001B78002BF1D1FB7B18461037BD4680BDAD
:1084F40080B584B000AF78600B46FB700023FB733B
:108504007B68002B02D10123FB7326E07B6818787B
:108514007B685B78C3F30303DBB20022194600F0E7
:108524006DFC0346FB73FB781B09DBB219467868C4
:1085340000F032F80346FB73786800F074F80346E1
:10854400FB73FB781946786800F026F80346FB7342
:10855400786800F068F80346FB73FB7B1846103715
:10856400BD4680BD80B584B000AF78600023FB7346
:108574007B68002B02D10123FB7308E0012178689A
:10858400FFF7B6FF0346FB730220FFF7A1FEFB7B58
:1085940018461037BD4680BD80B584B000AF786002
:1085A4000B46FB700023FB737B6818787B68997813
:1085B400FB7803F00103DBB21A4600F01FFC03460C
:1085C400FB737B6818787B68D978FB785B08DBB22F
:1085D40003F00103DBB21A4600F010FC0346FB7300
:1085E4007B6818787B681979FB789B08DBB203F009
:1085F4000103DBB21A4600F001FC0346FB737B68FF
:1086040018787B685979FB78DB08DBB203F0010347
:10861400DBB21A4600F0F2FB0346FB73FB7B184601
:108624001037BD4680BD80B584B000AF78600023AC
:10863400FB737B6818787B685B78C3F30313DBB246
:108644000122194600F0DAFB0346FB730B20FFF707
:1086540057FE7B6818787B685B78C3F30313DBB23F
:108664000022194600F0CAFB0346FB73FB7B184645
:108674001037BD4680BD80B584B000AF03460A46BE
:10868400FB711346BB710023FB7307F1080300223F
:108694001A60C3F80320FB793B72BB797B72012318
:1086A400BB7207F10803184600F08AFA0346FB730D
:1086B400FB7B18461037BD4680BD000080B483B0F4
:1086C40000AF0346FB71084B5B69FA79012101FA9B
:1086D40002F21146044A0B435361002318460C3737
:1086E400BD4680BC704700BF003C014080B483B0ED
:1086F40000AF03463960FB710A4B5B69FA790121CB
:1087040001FA02F21340002B14BF01230023DBB251
:108714001A463B681A70002318460C37BD4680BCC5
:10872400704700BF003C014080B500AF0A4B1B7886
:108734001846FFF7C3FF084B1B781A46074B53F83C
:108744002230002B06D0044B1B781A46034B53F8F7
:108754002230984700BF80BDB000002054000020A4
:1087640080B500AF0A4B1B781846FFF7A7FF084BEC
:108774001B781A46074B53F82230002B06D0044BC3
:108784001B781A46034B53F82230984700BF80BD2C
:10879400B00000205400002080B500AF0A4B1B78C5
:1087A4001846FFF78BFF084B1B781A46074B53F804
:1087B4002230002B06D0044B1B781A46034B53F887
:1087C4002230984700BF80BDB00000205400002034
:1087D40080B500AF0A4B1B781846FFF76FFF084BB4
:1087E4001B781A46074B53F82230002B06D0044B53
:1087F4001B781A46034B53F82230984700BF80BDBC
:10880400B00000205400002080B500AF0A4B1B7854
:108814001846FFF753FF084B1B781A46074B53F8CB
:108824002230002B06D0044B1B781A46034B53F816
:108834002230984700BF80BDB000002054000020C3
:1088440080B582B000AF0023FB71FB1D19460520E3
:10885400FFF74CFFFB79012B13D10520FFF72EFF07
:10886400424B1B781A46424B53F82230002B06D059
:108874003E4B1B781A463E4B53F822309847002350
:10888400FB71FB1D19460620FFF730FFFB79012B16
:1088940013D10620FFF712FF344B1B781A46344BD2
:1088A40053F82230002B06D0304B1B781A46304B3D
:1088B40053F8223098470023FB71FB1D194607200B
:1088C400FFF714FFFB79012B13D10720FFF7F6FE06
:1088D400264B1B781A46264B53F82230002B06D021
:1088E400224B1B781A46224B53F822309847002318
:1088F400FB71FB1D19460820FFF7F8FEFB79012BDD
:1089040013D10820FFF7DAFE184B1B781A46184BD0
:1089140053F82230002B06D0144B1B781A46144B04
:1089240053F8223098470023FB71FB1D1946092098
:10893400FFF7DCFEFB79012B13D10920FFF7BEFE04
:108944000A4B1B781A460A4B53F82230002B06D0E8
:10895400064B1B781A46064B53F8223098470023DF
:10896400FB7100BF0837BD4680BD00BFB0000020CA
:108974005400002080B582B000AF0023FB71FB1DC2
:1089840019460A20FFF7B2FEFB79012B13D10A2006
:10899400FFF794FE504B1B781A46504B53F8223085
:1089A400002B06D04C4B1B781A464C4B53F8223004
:1089B40098470023FB71FB1D19460B20FFF796FE19
:1089C400FB79012B13D10B20FFF778FE424B1B7868
:1089D4001A46424B53F82230002B06D03E4B1B78EC
:1089E4001A463E4B53F8223098470023FB71FB1D77
:1089F40019460C20FFF77AFEFB79012B13D10C20CA
:108A0400FFF75CFE344B1B781A46344B53F8223084
:108A1400002B06D0304B1B781A46304B53F82230CB
:108A240098470023FB71FB1D19460D20FFF75EFEDE
:108A3400FB79012B13D10D20FFF740FE264B1B7849
:108A44001A46264B53F82230002B06D0224B1B78B3
:108A54001A46224B53F8223098470023FB71FB1D22
:108A640019460E20FFF742FEFB79012B13D10E208D
:108A7400FFF724FE184B1B781A46184B53F8223084
:108A8400002B06D0144B1B781A46144B53F8223093
:108A940098470023FB71FB1D19460F20FFF726FEA4
:108AA400FB79012B13D10F20FFF708FE0A4B1B782B
:108AB4001A460A4B53F82230002B06D0064B1B787B
:108AC4001A46064B53F8223098470023FB7100BF27
:108AD4000837BD4680BD00BFB00000205400002010
:108AE40080B500AF0A4B1B781846FFF7E7FD084B2B
:108AF4001B781A46074B53F82230002B06D0044B40
:108B04001B781A46034B53F82230984700BF80BDA8
:108B1400B00000205400002080B500AF0A4B1B7841
:108B24001846FFF7CBFD084B1B781A46074B53F842
:108B34002230002B06D0044B1B781A46034B53F803
:108B44002230984700BF80BDB000002054000020B0
:108B540080B500AF0A4B1B781846FFF7AFFD084BF2
:108B64001B781A46074B53F82230002B06D0044BCF
:108B74001B781A46034B53F82230984700BF80BD38
:108B8400B00000205400002080B500AF0A4B1B78D1
:108B94001846FFF793FD084B1B781A46074B53F80A
:108BA4002230002B06D0044B1B781A46034B53F893
:108BB4002230984700BF80BDB00000205400002040
:108BC40080B485B000AF78600023FB737B68002B12
:108BD40002D10123FB7308E17B681B781A46864B9C
:108BE40053F822301A687B685B785B00032101FA32
:108BF40003F3DB4319467B681B7818467E4B53F816
:108C040020300A401A607B681B781A467A4B53F866
:108C140022301A687B689B7819467B685B785B0016
:108C240001FA03F319467B681B781846724B53F814
:108C340020300A431A607B681B781A466E4B53F83F
:108C44002230DA687B685B785B00032101FA03F366
:108C5400DB4319467B681B781846674B53F8203072
:108C64000A40DA607B681B781A46634B53F822305B
:108C7400DA687B685B7919467B685B785B0001FA8C
:108C840003F319467B681B7818465B4B53F8203076
:108C94000A43DA607B689B78012B04D07B689B785D
:108CA400022B40F0A2807B681B781A46524B53F883
:108CB40022305A687B685B78194601238B40DB437A
:108CC40019467B681B7818464B4B53F820300A40F2
:108CD4005A607B681B781A46474B53F822305A680F
:108CE4007B681B7919467B685B7801FA03F31946A4
:108CF4007B681B781846404B53F820300A435A606F
:108D04007B681B781A463C4B53F822309A687B6880
:108D14005B785B00032101FA03F3DB4319467B68AC
:108D24001B781846344B53F820300A409A607B680D
:108D34001B781A46304B53F822309A687B68DB78EC
:108D440019467B685B785B0001FA03F319467B687C
:108D54001B781846284B53F820300A439A607B68E6
:108D64009B78022B41D17B685B78DB08BB737B6803
:108D74005B7803F007037B737B681B781A461E4BF2
:108D840053F82230BA7B083253F822107B7B9B00C5
:108D94000F2202FA03F3DB4318467B681B781A465A
:108DA400154B53F82230BA7B0140083243F82210A5
:108DB4007B681B781A46104B53F82230BA7B083272
:108DC40053F822107B689B791A467B7B9B0002FA3E
:108DD40003F318467B681B781A46074B53F8223076
:108DE400BA7B0143083243F82210FB7B1846143740
:108DF400BD4680BC704700BF0000002080B485B031
:108E040000AF0346FB710B46BB7113467B71002315
:108E1400FB73FB79052B8CBF01230023DAB2BB79EA
:108E24000F2B8CBF01230023DBB21343DBB2002BD7
:108E340002D00123FB7327E07B79002B11D1FB794E
:108E4400144A52F823305A69BB79012101FA03F319
:108E5400DB431846FB790F4951F8233002405A612D
:108E640012E07B79012B0FD1FB790A4A52F82330A7
:108E74005A69BB79012101FA03F31846FB790549C4
:108E840051F8233002435A61FB7B18461437BD4620
:108E940080BC70470000002080B485B000AF03465A
:108EA4000A46FB711346BB710023FB73FB79052B48
:108EB4008CBF01230023DAB2BB790F2B8CBF0123B3
:108EC4000023DBB21343DBB2002B02D00123FB737C
:108ED4000FE0FB790A4A52F823305A69BB79012121
:108EE40001FA03F31846FB79054951F8233042404F
:108EF4005A61FB7B18461437BD4680BC704700BFDF
:108F04000000002080B485B000AF78600023FB73BC
:108F14007B68002B02D10123FB734AE07B681B684A
:108F2400012B1DD17B685B68012B12D1244B9B68FC
:108F3400234A43F001039360214B9B68204A23F0AA
:108F4400020393601E4B1B681D4A43F48033136075
:108F54002FE01B4B1B681A4A23F48033136028E06C
:108F64007B681B68022B1DD17B689B68012B12D187
:108F7400134B9B68124A23F001039360104B9B68C8
:108F84000F4A23F0020393600D4B1B680C4A43F015
:108F9400010313600DE00A4B1B68094A23F0010327
:108FA400136006E07B681B68042B02D07B681B6897
:108FB400082BFB7B18461437BD4680BC704700BFA6
:108FC4000038024080B485B000AF78600023FB73A2
:108FD4007B68002B02D10123FB731AE0104B9B68C2
:108FE40023F004027B681B680D4913438B600C4B10
:108FF4009B6823F00A027B685B68094913438B6012
:10900400074B9B6823F00D027B689B68044913435C
:109014008B60FB7B18461437BD4680BC704700BF8D
:109024000038024080B400AF2C4B1B781A462C4BFE
:1090340053F822301B6803F02003002B1CD0274B6D
:109044001B781A46264B53F822301A68234B1B7898
:109054001946234B53F8213022F020021A601F4B8B
:109064001B781A461E4B53F822305B68DAB21D4B4C
:109074001A701D4B01221A70184B1B781A46184B94
:1090840053F822301B6803F08003002B21D0134BCC
:109094001B781A46124B53F822301A680F4B1B7870
:1090A40019460F4B53F8213022F080021A600F4BFF
:1090B4001B78DBB2002B0CD10D4B1B78DAB2074BBB
:1090C4001B781946064B53F821305A60074B01228E
:1090D4001A7000BFBD4680BC704700BFB1000020BD
:1090E40018000020B3000020B40000202400002059
:1090F400B200002080B400AF2C4B1B781A462C4BD6
:1091040053F822301B6803F02003002B1CD0274B9C
:109114001B781A46264B53F822301A68234B1B78C7
:109124001946234B53F8213022F020021A601F4BBA
:109134001B781A461E4B53F822305B68DAB21D4B7B
:109144001A701D4B01221A70184B1B781A46184BC3
:1091540053F822301B6803F08003002B21D0134BFB
:109164001B781A46124B53F822301A680F4B1B789F
:1091740019460F4B53F8213022F080021A600F4B2E
:109184001B78DBB2002B0CD10D4B1B78DAB2074BEA
:109194001B781946064B53F821305A60074B0122BD
:1091A4001A7000BFBD4680BC704700BFB1000020EC
:1091B40018000020B3000020B40000202400002088
:1091C400B200002080B400AF2C4B1B781A462C4B05
:1091D40053F822301B6803F02003002B1CD0274BCC
:1091E4001B781A46264B53F822301A68234B1B78F7
:1091F4001946234B53F8213022F020021A601F4BEA
:109204001B781A461E4B53F822305B68DAB21D4BAA
:109214001A701D4B01221A70184B1B781A46184BF2
:1092240053F822301B6803F08003002B21D0134B2A
:109234001B781A46124B53F822301A680F4B1B78CE
:1092440019460F4B53F8213022F080021A600F4B5D
:109254001B78DBB2002B0CD10D4B1B78DAB2074B19
:109264001B781946064B53F821305A60074B0122EC
:109274001A7000BFBD4680BC704700BFB10000201B
:1092840018000020B3000020B400002024000020B7
:10929400B200002080B500AF00F044F8FEF7C6FF2E
:1092A4001B4B1B6B1A4A43F001031363184B1B6BD4
:1092B400174A43F004031363154B1B6B144A43F022
:1092C40002031363124B5B6C114A43F480435364EF
:1092D4001048FEF77DFF1048FFF772FC0F48FFF7B8
:1092E4002DF80E48FFF73EF90D490C48FFF7E0F85A
:1092F4004FF47A70FEF7ECFF0848FFF733F9C82003
:10930400FEF7E6FF0D210220FFF7C6FDECE700BFE4
:10931400003802400005FA05280000203000002033
:109324004094000880B58AB000AF002387F8273046
:1093340007F1100300221A605A609A60DA601A6119
:109344003B1D00221A605A609A6001233B6101238D
:109354007B6107F110031846FFF7D4FD034687F835
:10936400273000237B600023BB600023FB603B1D90
:109374001846FFF727FE034687F8273097F827306B
:1093840018462837BD4680BD0D488546AFF300809A
:109394000C480D490D4A002302E0D458C45004334C
:1093A400C4188C42F9D30A4A0A4C002301E0136022
:1093B4000432A242FBD300F011F8FFF76BFFFEE783
:1093C400000001200000002038000020589400080C
:1093D40038000020B8000020FEE7000070B50D4DF5
:1093E4000D4C641BA4100026A64209D10B4D0C4C55
:1093F40000F018F8641BA4100026A64205D170BD25
:1094040055F8043B98470136EEE755F8043B984776
:109414000136F2E750940008509400085094000874
:1094240054940008F8B500BFF8BC08BC9E467047C9
:0C943400F8B500BFF8BC08BC9E467047AD
:1094400048454C4C4F20465249454E44530000007D
:04945000B9810008D6
:0494540095810008F6
:10945800000002400004024000080240000C0240E4
:1094680000100240001C024000100140004400406F
:109478000014014001000000020D0101000000007D
:0894880001890405060700003C
:040000050800938DCF
:00000001FF
