:020000040800F2
:1000000000000120051F0008551F0008551F0008AB
:10001000551F0008551F0008551F0008000000006C
:10002000000000000000000000000000551F000854
:10003000551F000800000000551F0008551F00084C
:1000400000000000D10E0008551F0008790F0008BD
:10005000551F0008551F0008190B0008510B000818
:10006000890B0008C10B0008F90B0008551F000898
:10007000551F0008551F0008551F0008551F000890
:10008000551F0008551F0008551F000800000000FC
:10009000000000000000000000000000310C00081B
:1000A000551F0008551F0008551F0008551F000860
:1000B000551F0008551F0008551F0008551F000850
:1000C000551F0008551F0008551F0008551F000840
:1000D000551F0008051B0008351A00080000000025
:1000E000650D0008090F0008410F0008000000001E
:1000F000000000000000000000000000551F000884
:1001000000000000551F0008551F0008551F00087B
:1001100000000000000000000000000000000000DF
:10012000551F0008551F0008551F0008551F0008DF
:10013000551F000800000000000000000000000043
:10014000000000000000000000000000551F000833
:10015000551F0008551F0008551F0008D51B000833
:10016000551F0008551F0008000000000000000097
:10017000000000000000000000000000000000007F
:10018000000000000000000000000000000000006F
:04019000551F0008EF
:1001940010B5054C237833B9044B13B10448AFF3BD
:1001A40000800123237010BD5800002000000000CF
:1001B400B01F000808B5034B1BB103490348AFF354
:1001C400008008BD000000005C000020B01F000893
:1001D40080B588B000AFF8600B467A60FB720023EC
:1001E400FB770EE0FB7FFA6813441B787B6107F111
:1001F40014030121184600F035FCB861FB7F01337C
:10020400FB77FA7FFB7A9A42ECD300F01DFCBA69C3
:100214007B689A4202D10123BB7701E00023BB77BC
:10022400BB7F18462037BD4680BD000080B584B032
:1002340000AF0346FB71A5233B73FB797B733B7BC8
:100244001946064801F0BEFA7B7B1946034801F0C3
:10025400B9FA00BF1037BD4680BD00BF480000207A
:1002640080B582B000AF7F23FB71FB791946034848
:1002740001F0A8FA00BF0837BD4680BD4800002041
:1002840080B485B000AF78607B68B3F1006F06D3AB
:100294007B680C4A934202D80023FB730CE07B6812
:1002A400B3F1005F06D37B68074A934202D8002368
:1002B400FB7301E00123FB73FB7B18461437BD4637
:1002C40080BC7047000004080000012080B584B0A1
:1002D40000AF03460A46FB711346BB710023FB7350
:1002E400BB79082B05D9FB79FF2B02D00123FB73C3
:1002F40026E0FB79072B05D9FB79FF2B02D00123DC
:10030400FB731DE000F066FEFB79FF2B04D100F0C7
:1003140079FE0346FB7311E0FB79C3F10803BB7359
:10032400BA79BB7B9A4201D9BB7BBB71BA79FB79A1
:100334001146184600F08EFE0346FB7300F036FEAD
:10034400FB7B18461037BD4680BD000080B586B0E3
:1003540000AFF860B9601346FB710023BB75BB683E
:10036400B3F1006F1DD3BB681A4A934219D800F049
:1003740031FE0023FB750DE0FA7DBB68134418467B
:10038400FB7DFA6813441B78194600F097FEFB7D49
:100394000133FB75FA7DFB799A42EDD300F006FE3A
:1003A40013E0BB683B610023FB750AE0FB7DFA6840
:1003B4001A44FB7D39690B4412781A70FB7D0133B2
:1003C400FB75FA7DFB799A42F0D3BB7D184618374A
:1003D400BD4680BD0000040880B584B000AF03466C
:1003E4000A46FB711346BB710023FB7300F0A2FEA7
:1003F4000346FB73BB79012B08D1FB7903F03F0360
:10040400DBB21946002000F0A9FE07E0FB7903F0F7
:100414003F03DBB21946012000F0A0FE00F07AFE93
:100424000346FB73FB7B18461037BD4680BD0000B6
:1004340080B586B000AF78607B681B780133FB75AC
:10044400FB7D043B7A6813441B683B61FB7D043BE2
:10045400DBB23A6919467868FFF7BAFE0346FB73C4
:10046400FB7B012B0AD10120FFF7E0FE0123BB73C4
:10047400BB7B1946044801F0A5F901E0FFF7F0FE43
:1004840000BF1837BD4680BD4800002080B588B045
:1004940000AF78607B681B780133BB77BB7F043B7C
:1004A4007A6813441B68BB61BB7F043BDBB2BA6947
:1004B40019467868FFF78CFE0346FB75FB7D012B1C
:1004C4001BD1114A07F1080307CA83E807000C206F
:1004D400FFF7ACFE0023FB770BE0FB7F20333B44AC
:1004E40013F8183C1946094801F06CF9FB7F0133F5
:1004F400FB77FB7F0B2BF0D901E0FFF7B1FE00BFC8
:100504002037BD4680BD00BFC81F0008480000203A
:1005140080B586B000AF78607B681B780133FB75CB
:10052400FB7D043B7A6813441B683B61FB7D043B01
:10053400DBB23A6919467868FFF74AFE0346FB7353
:10054400FB7B012B17D10F4B1B689BB2C3F30B032F
:10055400BB810220FFF76AFEBB89DBB219460A4859
:1005640001F030F9BB891B0A9BB2DBB2194606487D
:1005740001F028F901E0FFF773FE00BF1837BD460C
:1005840080BD00BF002004E04800002080B586B094
:1005940000AF78607B681B780133FB75FB7D043BFF
:1005A4007A6813441B683B61FB7D043BDBB23A6908
:1005B40019467868FFF70CFE0346FB73FB7B012B9F
:1005C4000CD10120FFF732FE074B1B681B0ABB73DB
:1005D400BB7B1946054801F0F5F801E0FFF740FE42
:1005E40000BF1837BD4680BD00C0FF1F4800002073
:1005F40080B588B000AF78607B681B780133FB77E7
:10060400FB7F043B7A6813441B68BB61FB7F043B9C
:10061400DBB2BA6919467868FFF7DAFD0346FB7561
:10062400FB7D012B20D10120FFF700FE7B68D3F86E
:1006340002303B613869FFF723FE0346FB73FB7B03
:10064400002B0BD1FB7B19460A4801F0BBF80023B1
:10065400BB603B69BB60BB68984707E0FB7B1946FE
:10066400044801F0AFF801E0FFF7FAFD00BF2037BE
:10067400BD4680BD4800002080B586B000AF7860DC
:100684007B681B780133FB75FB7D043B7A6813445C
:100694001B683B61FB7D043BDBB23A691946786811
:1006A400FFF796FD0346FB73FB7B012B14D101205E
:1006B400FFF7BCFD7B6802331A787B6803331B7831
:1006C40019461046FFF702FE0346BB73BB7B19466F
:1006D400044801F077F801E0FFF7C2FD00BF1837C6
:1006E400BD4680BD4800002080B588B000AF78606A
:1006F4007B681B780133BB77BB7F043B7A68134468
:100704001B68BB61BB7F043BDBB2BA6919467868DE
:10071400FFF75EFD0346FB75FB7D012B23D17B6850
:10072400D3F802303B613869FFF7AAFD0346FB7337
:100734000120FFF77BFDFB7B002B0CD17B689B79B1
:10074400BB737B680733BA7B39691846FFF7FEFD34
:100754000346FB7701E00123FB77FB7F194605483D
:1007640001F030F801E0FFF77BFD00BF2037BD4604
:1007740080BD00BF4800002080B586B000AF78601F
:100784000023FB757B681B780133BB75BB7D043B81
:100794007A6813441B683B61BB7D043BDBB23A6956
:1007A40019467868FFF714FD0346FB73FB7B012BA6
:1007B40016D17B689B78BB737B68DB787B737A7B11
:1007C400BB7B11461846FFF707FE0346FB75012065
:1007D400FFF72CFDFB7D1946044800F0F3FF01E010
:1007E400FFF73EFD00BF1837BD4680BD480000201E
:1007F40080B588B000AF78607B681B780133BB7725
:10080400BB7F043B7A6813441B68BB61BB7F043B1A
:10081400DBB2BA6919467868FFF7DAFC0346FB7560
:10082400FB7D012B1FD17B68D3F802303B617B68D1
:100834009B79FB73FB7B1846FFF7F8FC0023FB77DF
:100844000CE0FA7F3B6913441B78BB73BB7B1946EE
:10085400084800F0B7FFFB7F0133FB77FA7FFB7B8F
:100864009A42EED301E0FFF7FBFC00BF2037BD4600
:1008740080BD00BF4800002080B586B000AF78601E
:100884007B681B780133FB75FB7D043B7A6813445A
:100894001B683B61FB7D043BDBB23A69194678680F
:1008A400FFF796FC0346FB73FB7B012B0DD1012064
:1008B400FFF7BCFC07F10E03184600F091FCBB7B6C
:1008C4001946054800F07EFF01E0FFF7C9FC00BFB0
:1008D4001837BD4680BD00BF4800002080B586B0F3
:1008E40000AF78607B681B780133FB75FB7D043BAC
:1008F4007A6813441B683B61FB7D043BDBB23A69B5
:1009040019467868FFF764FC0346FB73FB7B012BF5
:1009140003D10120FFF78AFC01E0FFF7A1FC00BF2F
:100924001837BD4680BD80B586B000AF786001231E
:10093400FB757B681B780133BB75BB7D043B7A6810
:1009440013441B683B61BB7D043BDBB23A69194627
:100954007868FFF73DFC0346FB73FB7B012B03D157
:100964000120FFF763FC01E0FFF77AFC00BF1837B2
:10097400BD4680BD80B485B000AF0346FB71002343
:10098400FB7397F90730542B02DD0123FB731AE044
:1009940097F90730002B00DA1F335B115BB2BB738E
:1009A40097F907305A4203F01F0302F01F0258BFA1
:1009B40053425BB27B737B7B012202FA03F1054A4B
:1009C400BB7B42F82310FB7B18461437BD4680BC22
:1009D400704700BF00E100E080B483B000AF6FF067
:1009E4007F433B600023FB713B68B3F1807F02D9F6
:1009F4000123FB7111E00C4B1B680B4A23F001032C
:100A04001360094A3B685360074B00229A60064B07
:100A14001B68054A43F004031360FB7918460C373E
:100A2400BD4680BC704700BF10E000E080B500AF59
:100A3400044B1B6B034A43F48053136300F004F824
:100A440000BF80BD0038024080B400AF044B9B68F7
:100A5400034A43F00103936000BFBD4680BC704766
:100A64000030024080B485B000AF78600B46FB7064
:100A74000023FB6009E0FB689B007A681344094A81
:100A84001B681360FB680133FB60FB78FA689A42C9
:100A9400F1D3044B1B68BB60BB6818461437BD46D2
:100AA40080BC70470030024080B483B000AF03467E
:100AB400FB71084B5B69FA79012101FA02F21146D4
:100AC400044A0B435361002318460C37BD4680BCCF
:100AD400704700BF003C014080B483B000AF0346C0
:100AE4003960FB710A4B5B69FA79012101FA02F260
:100AF4001340002B14BF01230023DBB21A463B68CA
:100B04001A70002318460C37BD4680BC704700BFDE
:100B1400003C014080B500AF0A4B1B781846FFF734
:100B2400C3FF084B1B781A46074B53F82230002B9F
:100B340006D0044B1B781A46034B53F822309847CF
:100B440000BF80BDD00000207400002080B500AF3D
:100B54000A4B1B781846FFF7A7FF084B1B781A4669
:100B6400074B53F82230002B06D0044B1B781A464F
:100B7400034B53F82230984700BF80BDD0000020BB
:100B84007400002080B500AF0A4B1B781846FFF7AD
:100B94008BFF084B1B781A46074B53F82230002B67
:100BA40006D0044B1B781A46034B53F8223098475F
:100BB40000BF80BDD00000207400002080B500AFCD
:100BC4000A4B1B781846FFF76FFF084B1B781A4631
:100BD400074B53F82230002B06D0044B1B781A46DF
:100BE400034B53F82230984700BF80BDD00000204B
:100BF4007400002080B500AF0A4B1B781846FFF73D
:100C040053FF084B1B781A46074B53F82230002B2E
:100C140006D0044B1B781A46034B53F822309847EE
:100C240000BF80BDD00000207400002080B582B0D9
:100C340000AF0023FB71FB1D19460520FFF74CFF95
:100C4400FB79012B13D10520FFF72EFF424B1B78B4
:100C54001A46424B53F82230002B06D03E4B1B78E9
:100C64001A463E4B53F8223098470023FB71FB1D74
:100C740019460620FFF730FFFB79012B13D106201C
:100C8400FFF712FF344B1B781A46344B53F82230CB
:100C9400002B06D0304B1B781A46304B53F82230C9
:100CA40098470023FB71FB1D19460720FFF714FF2B
:100CB400FB79012B13D10720FFF7F6FE264B1B7897
:100CC4001A46264B53F82230002B06D0224B1B78B1
:100CD4001A46224B53F8223098470023FB71FB1D20
:100CE40019460820FFF7F8FEFB79012B13D10820E1
:100CF400FFF7DAFE184B1B781A46184B53F82230CC
:100D0400002B06D0144B1B781A46144B53F8223090
:100D140098470023FB71FB1D19460920FFF7DCFEF1
:100D2400FB79012B13D10920FFF7BEFE0A4B1B7878
:100D34001A460A4B53F82230002B06D0064B1B7878
:100D44001A46064B53F8223098470023FB7100BF24
:100D54000837BD4680BD00BFD000002074000020CD
:100D640080B582B000AF0023FB71FB1D19460A2039
:100D7400FFF7B2FEFB79012B13D10A20FFF794FE93
:100D8400504B1B781A46504B53F82230002B06D098
:100D94004C4B1B781A464C4B53F82230984700238F
:100DA400FB71FB1D19460B20FFF796FEFB79012B07
:100DB40013D10B20FFF778FE424B1B781A46424BA7
:100DC40053F82230002B06D03E4B1B781A463E4B7C
:100DD40053F8223098470023FB71FB1D19460C2061
:100DE400FFF77AFEFB79012B13D10C20FFF75CFE91
:100DF400344B1B781A46344B53F82230002B06D060
:100E0400304B1B781A46304B53F822309847002356
:100E1400FB71FB1D19460D20FFF75EFEFB79012BCC
:100E240013D10D20FFF740FE264B1B781A46264BA4
:100E340053F82230002B06D0224B1B781A46224B43
:100E440053F8223098470023FB71FB1D19460E20EE
:100E5400FFF742FEFB79012B13D10E20FFF724FE8E
:100E6400184B1B781A46184B53F82230002B06D027
:100E7400144B1B781A46144B53F82230984700231E
:100E8400FB71FB1D19460F20FFF726FEFB79012B92
:100E940013D10F20FFF708FE0A4B1B781A460A4BA2
:100EA40053F82230002B06D0064B1B781A46064B0B
:100EB40053F8223098470023FB7100BF0837BD4622
:100EC40080BD00BFD00000207400002080B500AFBA
:100ED4000A4B1B781846FFF7E7FD084B1B781A46A8
:100EE400074B53F82230002B06D0044B1B781A46CC
:100EF400034B53F82230984700BF80BDD000002038
:100F04007400002080B500AF0A4B1B781846FFF729
:100F1400CBFD084B1B781A46074B53F82230002BA5
:100F240006D0044B1B781A46034B53F822309847DB
:100F340000BF80BDD00000207400002080B500AF49
:100F44000A4B1B781846FFF7AFFD084B1B781A466F
:100F5400074B53F82230002B06D0044B1B781A465B
:100F6400034B53F82230984700BF80BDD0000020C7
:100F74007400002080B500AF0A4B1B781846FFF7B9
:100F840093FD084B1B781A46074B53F82230002B6D
:100F940006D0044B1B781A46034B53F8223098476B
:100FA40000BF80BDD00000207400002080B483B056
:100FB40000AF0023FB71064B1B69054A43F0004355
:100FC4001361FB7918460C37BD4680BC704700BFDF
:100FD400003C024080B483B000AF0023FB71064B99
:100FE400064A5A60044B064A5A60FB7918460C3785
:100FF400BD4680BC704700BF003C024023016745EA
:10100400AB89EFCD80B483B000AF0023FB7100BF88
:101014000F4BDB6803F48033002BF9D10C4B1B69B5
:101024000B4A43F004031361094B1B69084A43F458
:101034008033136100BF064BDB6803F48033002B5D
:10104400F9D1FB7918460C37BD4680BC704700BF08
:10105400003C024080B485B000AF03460A46FB71F1
:101064001346BB710023FB7300BF134BDB6803F40F
:101074008033002BF9D1104B1B690F4A43F0020354
:1010840013610D4B1B69FA79D20011460A4A0B43CE
:101094001361094B1B69084A43F48033136100BF91
:1010A400054BDB6803F48033002BF9D1FB7B184636
:1010B4001437BD4680BC7047003C024080B483B006
:1010C40000AF78600B46FB7000BF114BDB6803F484
:1010D4008033002BF9D10E4B1B690D4A43F00103F9
:1010E40013610B4B1B690A4A23F4407313617B6839
:1010F400FA781A7000BF064BDB6803F48033002BC8
:10110400F9D1002318460C37BD4680BC704700BF98
:10111400003C024080B400AF054B5B69044A43F0D5
:101124000103536100231846BD4680BC704700BFCD
:10113400003C024080B400AF054B064A9A60044B61
:10114400054A9A6000231846BD4680BC704700BF1C
:10115400003C02403B2A19087F6E5D4C80B483B08A
:1011640000AF03460A46FB711346BB7100BF1B4B1D
:10117400DB6803F48033002BF9D1184B5B69FA79EF
:10118400D2071146154A0B435361FB79002B09D151
:10119400124B5B69BA791204D24311460F4A0B40D1
:1011A400536107E00D4B5B69BA79120411460B4A8F
:1011B4000B435361094B5B69084A43F002035361D3
:1011C40000BF064BDB6803F48033002BF9D1002306
:1011D40018460C37BD4680BC704700BF003C024037
:1011E40080B483B000AF7860064B5B691B0CDBB244
:1011F40003F03F03DAB27B681A7000BF0C37BD46B8
:1012040080BC7047003C024080B485B000AF786079
:101214000023FB737B68002B02D10123FB7308E1DD
:101224007B681B781A46864B53F822301A687B6811
:101234005B785B00032101FA03F3DB4319467B6807
:101244001B7818467E4B53F820300A401A607B689E
:101254001B781A467A4B53F822301A687B689B78BD
:1012640019467B685B785B0001FA03F319467B68D7
:101274001B781846724B53F820300A431A607B6877
:101284001B781A466E4B53F82230DA687B685B7819
:101294005B00032101FA03F3DB4319467B681B78E7
:1012A4001846674B53F820300A40DA607B681B7895
:1012B4001A46634B53F82230DA687B685B79194627
:1012C4007B685B785B0001FA03F319467B681B7843
:1012D40018465B4B53F820300A43DA607B689B78EE
:1012E400012B04D07B689B78022B40F0A2807B68A2
:1012F4001B781A46524B53F822305A687B685B7845
:10130400194601238B40DB4319467B681B7818463A
:101314004B4B53F820300A405A607B681B781A46BE
:10132400474B53F822305A687B681B7919467B680F
:101334005B7801FA03F319467B681B781846404B27
:1013440053F820300A435A607B681B781A463C4B9A
:1013540053F822309A687B685B785B00032101FABA
:1013640003F3DB4319467B681B781846344B53F868
:1013740020300A409A607B681B781A46304B53F839
:1013840022309A687B68DB7819467B685B785B005F
:1013940001FA03F319467B681B781846284B53F867
:1013A40020300A439A607B689B78022B41D17B688A
:1013B4005B78DB08BB737B685B7803F007037B73A4
:1013C4007B681B781A461E4B53F82230BA7B0832CE
:1013D40053F822107B7B9B000F2202FA03F3DB43BA
:1013E40018467B681B781A46154B53F82230BA7B93
:1013F4000140083243F822107B681B781A46104BD0
:1014040053F82230BA7B083253F822107B689B7958
:101414001A467B7B9B0002FA03F318467B681B7811
:101424001A46074B53F82230BA7B0143083243F87B
:101434002210FB7B18461437BD4680BC704700BFA2
:101444000000002080B485B000AF03463A60FB7111
:101454000B46BB710023FB73FB79052B8CBF012367
:101464000023DAB2BB790F2B8CBF01230023DBB23C
:101474001343DBB21A463B68002B0CBF0123002345
:10148400DBB21343002B02D00123FB7312E0FB7980
:101494000B4A52F823301B69BA79012101FA02F28E
:1014A4001340002B03D03B6801221A7002E03B6812
:1014B40000221A70FB7B18461437BD4680BC704767
:1014C4000000002080B485B000AF78600023FB7377
:1014D4007B68002B02D10123FB734AE07B681B6805
:1014E400012B1DD17B685B68012B12D1244B9B68B7
:1014F400234A43F001039360214B9B68204A23F065
:10150400020393601E4B1B681D4A43F4803313602F
:101514002FE01B4B1B681A4A23F48033136028E026
:101524007B681B68022B1DD17B689B68012B12D141
:10153400134B9B68124A23F001039360104B9B6882
:101544000F4A23F0020393600D4B1B680C4A43F0CF
:10155400010313600DE00A4B1B68094A23F00103E1
:10156400136006E07B681B68042B02D07B681B6851
:10157400082BFB7B18461437BD4680BC704700BF60
:101584000038024080B485B000AF78600023FB735C
:101594007B68002B02D10123FB731AE0104B9B687C
:1015A40023F004027B681B680D4913438B600C4BCA
:1015B4009B6823F00A027B685B68094913438B60CC
:1015C400074B9B6823F00D027B689B680449134317
:1015D4008B60FB7B18461437BD4680BC704700BF48
:1015E4000038024080B584B000AF78600023FB73FC
:1015F4007B68002B02D10123FB73D9E0786800F0EB
:1016040043F97B681B781A466C4B53F82230DA682E
:101614007B681B781946694B53F8213042F4005219
:10162400DA607B681B781A46644B53F82230DA6818
:101634007B685B7A1B0319467B681B7818465F4BF3
:1016440053F820300A43DA607B689B7A022B10D16E
:101654007B681B781A46594B53F82230DA687B684A
:101664001B781946554B53F8213022F48062DA6016
:1016740022E07B681B781A46504B53F82230DA6814
:101684007B681B7819464D4B53F8213042F4806235
:10169400DA607B681B781A46484B53F82230DA68C4
:1016A4007B689B7A5B0219467B681B781846434B20
:1016B40053F820300A43DA607B689B78022B28D0E9
:1016C400022B47DC002B02D0012B11D042E07B68B7
:1016D4001B781A46394B53F82230DA687B681B783A
:1016E4001946364B53F8213042F00402DA6032E0F6
:1016F4007B681B781A46314B53F82230DA687B68D2
:101704001B7819462D4B53F8213042F00802DA6059
:1017140021E07B681B781A46284B53F82230DA689C
:101724007B681B781946254B53F8213042F004029C
:10173400DA607B681B781A46204B53F82230DA684B
:101744007B681B7819461D4B53F8213042F0080280
:10175400DA6000E000BF7B681B781A46174B53F829
:1017640022301A697B681B7A1B0319467B681B7835
:101774001846124B53F820300A431A617B681B78D1
:101784001A460E4B53F82230DA687B68DB7ADB03A7
:1017940019467B681B781846084B53F820300A43D7
:1017A400DA607B681A78064B1A70786800F0DCF807
:1017B400FB7B18461037BD4680BD00BF18000020D3
:1017C400D100002080B485B000AF78600B46FB7078
:1017D4000023FB737B68002B02D10123FB731FE002
:1017E40000BF7B681B781A46104B53F822301B68E5
:1017F40003F08003002BF4D07B681B781A460B4B54
:1018040053F82230FA785A6000BF7B681B781A4676
:10181400064B53F822301B6803F04003002BF4D02E
:10182400FB7B18461437BD4680BC70471800002067
:1018340080B485B000AF786039600023FB737B68A7
:10184400002B02D10123FB7315E000BF7B681B78DA
:101854001A460C4B53F822301B6803F02003002B6C
:10186400F4D07B681B781A46064B53F822305B6829
:10187400DAB23B681A70FB7B18461437BD4680BC4D
:10188400704700BF1800002080B487B000AF7860B4
:101894007B685B68FB607B68DB7A002B16D1FB6896
:1018A4001B012D4AB2FBF3F37B617A692B4BA3FB3B
:1018B40002135B09642101FB03F3D31A1B013233C6
:1018C400264AA2FB03235B093B6118E0FB68DB00AB
:1018D400234AB2FBF3F3642202FB03F37B617A69CC
:1018E4001E4BA3FB02135B09642101FB03F3D31A10
:1018F400DB003233194AA2FB03235B093B617B699A
:10190400164AA2FB03235B09BB607B681B781A465B
:10191400144B53F822309968BB681A017B681B7812
:101924001846104B53F820300A439A607B681B78A2
:101934001A460C4B53F8223099687B681B781A4678
:10194400084B53F822303A690A439A6000BF1C37A7
:10195400BD4680BC704700BF00105E5F1F85EB5121
:101964000024F4001800002080B582B000AF786035
:101974007B685B7B022B17D0022B17DC002B17D064
:10198400012B00D012E07B681B781A46274B53F8D2
:101994002230DA687B681B781946244B53F82130CF
:1019A40042F08002DA6004E000BF02E000BF00E021
:1019B40000BF7B689B7B022B17D0022B17DC002B0C
:1019C40017D0012B00D012E07B681B781A46174B06
:1019D40053F82230DA687B681B781946134B53F8A6
:1019E400213042F02002DA6004E000BF02E000BFD0
:1019F40000E000BF7B681B78002B03D12520FEF795
:101A0400B9FF0EE07B681B78012B03D12620FEF77B
:101A1400B1FF06E07B681B78022B02D14720FEF75A
:101A2400A9FF00BF0837BD4680BD00BF18000020D5
:101A340080B400AF2C4B1B781A462C4B53F8223041
:101A44001B6803F02003002B1CD0274B1B781A467D
:101A5400264B53F822301A68234B1B781946234B24
:101A640053F8213022F020021A601F4B1B781A46CB
:101A74001E4B53F822305B68DAB21D4B1A701D4BB3
:101A840001221A70184B1B781A46184B53F822304F
:101A94001B6803F08003002B21D0134B1B781A46DC
:101AA400124B53F822301A680F4B1B7819460F4B10
:101AB40053F8213022F080021A600F4B1B78DBB2FE
:101AC400002B0CD10D4B1B78DAB2074B1B7819464F
:101AD400064B53F821305A60074B01221A7000BF9D
:101AE400BD4680BC704700BFD10000201800002014
:101AF400D3000020D400002024000020D2000020C5
:101B040080B400AF2C4B1B781A462C4B53F8223070
:101B14001B6803F02003002B1CD0274B1B781A46AC
:101B2400264B53F822301A68234B1B781946234B53
:101B340053F8213022F020021A601F4B1B781A46FA
:101B44001E4B53F822305B68DAB21D4B1A701D4BE2
:101B540001221A70184B1B781A46184B53F822307E
:101B64001B6803F08003002B21D0134B1B781A460B
:101B7400124B53F822301A680F4B1B7819460F4B3F
:101B840053F8213022F080021A600F4B1B78DBB22D
:101B9400002B0CD10D4B1B78DAB2074B1B7819467E
:101BA400064B53F821305A60074B01221A7000BFCC
:101BB400BD4680BC704700BFD10000201800002043
:101BC400D3000020D400002024000020D2000020F4
:101BD40080B400AF2C4B1B781A462C4B53F82230A0
:101BE4001B6803F02003002B1CD0274B1B781A46DC
:101BF400264B53F822301A68234B1B781946234B83
:101C040053F8213022F020021A601F4B1B781A4629
:101C14001E4B53F822305B68DAB21D4B1A701D4B11
:101C240001221A70184B1B781A46184B53F82230AD
:101C34001B6803F08003002B21D0134B1B781A463A
:101C4400124B53F822301A680F4B1B7819460F4B6E
:101C540053F8213022F080021A600F4B1B78DBB25C
:101C6400002B0CD10D4B1B78DAB2074B1B781946AD
:101C7400064B53F821305A60074B01221A7000BFFB
:101C8400BD4680BC704700BFD10000201800002072
:101C9400D3000020D400002024000020D200002023
:101CA40080B582B000AF00F0F9F8FEF795FE1D4B49
:101CB4001B6B1C4A43F0010313631A4B1B6B194A39
:101CC40043F002031363174B1B6B164A43F00403E0
:101CD4001363144B1B6C134A43F400331364FEF771
:101CE400A5FE1148FFF790FA1048FFF78DFA104847
:101CF400FFF78AFA0F48FFF787FA0F48FFF772FCDD
:101D04000123FB71FB1D1A460C210120FFF79AFBEE
:101D1400FB79002B02D100F011F801E000F0A6F8E5
:101D2400FEE700BF003802402800002030000020F9
:101D340040000020380000204800002080B5C2B0D8
:101D440000AF07F58473A3F5827300221A6004338D
:101D5400FB220021184600F0FCF83B1DFF22002165
:101D6400184600F0F6F83B1D19463F48FFF760FDA2
:101D74000123C7F804310CE03A1DD7F804311344A9
:101D840019463948FFF754FDD7F804310133C7F831
:101D9400043107F58473A3F582731B781A46D7F8C8
:101DA40004319342E8DD07F58473A3F582735B780D
:101DB400513B0B2BD1D801A252F823F0F11D00089E
:101DC400FB1D0008051E00080F1E0008191E000850
:101DD400231E00082D1E0008371E0008411E00089F
:101DE4004B1E0008551E00085F1E00083B1D1846C8
:101DF400FEF71EFB37E03B1D1846FEF747FB32E0BB
:101E04003B1D1846FEF784FB2DE03B1D1846FEF7EC
:101E1400BDFB28E03B1D1846FEF7EAFB23E03B1D13
:101E24001846FEF729FC1EE03B1D1846FEF75CFC35
:101E340019E03B1D1846FEF79FFC14E03B1D1846B5
:101E4400FEF7D6FC0FE03B1D1846FEF715FD0AE031
:101E54003B1D1846FEF742FD05E03B1D1846FEF704
:101E640062FD00BF79E778E74800002080B584B0C0
:101E740000AF084B1B68FB60FB6883F30888064BC4
:101E84001B68BB60BB687B607B68984700BF1037EA
:101E9400BD4680BD008000080480000880B58AB07B
:101EA40000AF002387F8273007F1100300221A60DF
:101EB4005A609A60DA601A613B1D00221A605A6007
:101EC4009A6001233B6101237B6107F110031846EB
:101ED400FFF7F8FA034687F8273000237B600023D6
:101EE400BB600023FB603B1D1846FFF74BFB03461A
:101EF40087F8273097F8273018462837BD4680BD25
:101F04000D488546AFF300800C480D490D4A002367
:101F140002E0D458C4500433C4188C42F9D30A4A9A
:101F24000A4C002301E013600432A242FBD300F008
:101F340019F8FFF7B5FEFEE70000012000000020BD
:101F440058000020DC1F000858000020D8000020A2
:101F5400FEE702440346934200D1704703F8011B95
:101F6400F9E7000070B50D4D0D4C641BA41000265C
:101F7400A64209D10B4D0C4C00F018F8641BA410B8
:101F84000026A64205D170BD55F8043B984701369A
:101F9400EEE755F8043B98470136F2E7D41F0008F2
:101FA400D41F0008D41F0008D81F0008F8B500BFCC
:101FB400F8BC08BC9E467047F8B500BFF8BC08BC26
:041FC4009E4670477E
:0C1FC8005152535455565758595A5B5CFF
:041FD400B901000847
:041FD8009501000867
:101FDC00000002400004024000080240000C0240D5
:101FEC0000100240001C0240001001400044004060
:101FFC000014014001000000020D0101000000006E
:10200C00010C0001000100000003020100000700A8
:10201C0000020201000007000100020000C20100E2
:08202C000000020000000000AA
:0400000508001F05CB
:00000001FF
